{
  "contractName": "HackathonMunon",
  "abi": [
    {
      "constant": true,
      "inputs": [
        {
          "name": "",
          "type": "uint256"
        },
        {
          "name": "",
          "type": "address"
        },
        {
          "name": "",
          "type": "address"
        }
      ],
      "name": "participant_ratings",
      "outputs": [
        {
          "name": "",
          "type": "uint256"
        }
      ],
      "payable": false,
      "stateMutability": "view",
      "type": "function"
    },
    {
      "constant": true,
      "inputs": [
        {
          "name": "",
          "type": "uint256"
        }
      ],
      "name": "total_hackathon_points",
      "outputs": [
        {
          "name": "",
          "type": "uint256"
        }
      ],
      "payable": false,
      "stateMutability": "view",
      "type": "function"
    },
    {
      "constant": true,
      "inputs": [
        {
          "name": "",
          "type": "uint256"
        }
      ],
      "name": "hackathons",
      "outputs": [
        {
          "name": "host_addr",
          "type": "address"
        },
        {
          "name": "state",
          "type": "uint8"
        },
        {
          "name": "image_hash",
          "type": "string"
        },
        {
          "name": "name",
          "type": "string"
        },
        {
          "name": "pot",
          "type": "uint256"
        },
        {
          "name": "creation_time",
          "type": "uint256"
        },
        {
          "name": "enable_review_time",
          "type": "uint256"
        }
      ],
      "payable": false,
      "stateMutability": "view",
      "type": "function"
    },
    {
      "constant": true,
      "inputs": [
        {
          "name": "",
          "type": "uint256"
        },
        {
          "name": "",
          "type": "address"
        }
      ],
      "name": "hackathon_participants",
      "outputs": [
        {
          "name": "addr",
          "type": "address"
        },
        {
          "name": "points",
          "type": "uint256"
        }
      ],
      "payable": false,
      "stateMutability": "view",
      "type": "function"
    },
    {
      "constant": true,
      "inputs": [],
      "name": "hackathon_count",
      "outputs": [
        {
          "name": "",
          "type": "uint256"
        }
      ],
      "payable": false,
      "stateMutability": "view",
      "type": "function"
    },
    {
      "constant": true,
      "inputs": [
        {
          "name": "",
          "type": "uint256"
        },
        {
          "name": "",
          "type": "address"
        }
      ],
      "name": "participant_has_cashed_out",
      "outputs": [
        {
          "name": "",
          "type": "bool"
        }
      ],
      "payable": false,
      "stateMutability": "view",
      "type": "function"
    },
    {
      "payable": true,
      "stateMutability": "payable",
      "type": "fallback"
    },
    {
      "anonymous": false,
      "inputs": [
        {
          "indexed": false,
          "name": "hackaton_host",
          "type": "address"
        },
        {
          "indexed": false,
          "name": "hackathon_id",
          "type": "uint256"
        },
        {
          "indexed": false,
          "name": "image_hash",
          "type": "string"
        },
        {
          "indexed": false,
          "name": "name",
          "type": "string"
        },
        {
          "indexed": false,
          "name": "creation_time",
          "type": "uint256"
        }
      ],
      "name": "HackathonCreation",
      "type": "event"
    },
    {
      "anonymous": false,
      "inputs": [
        {
          "indexed": false,
          "name": "hackathon_id",
          "type": "uint256"
        },
        {
          "indexed": false,
          "name": "participant_addr",
          "type": "address"
        }
      ],
      "name": "Registration",
      "type": "event"
    },
    {
      "anonymous": false,
      "inputs": [
        {
          "indexed": false,
          "name": "hackathon_id",
          "type": "uint256"
        },
        {
          "indexed": false,
          "name": "value",
          "type": "uint256"
        }
      ],
      "name": "SponsorshipSubmited",
      "type": "event"
    },
    {
      "anonymous": false,
      "inputs": [
        {
          "indexed": false,
          "name": "hackathon_id",
          "type": "uint256"
        },
        {
          "indexed": false,
          "name": "reviewer_addr",
          "type": "address"
        },
        {
          "indexed": false,
          "name": "reviewed_addr",
          "type": "address"
        },
        {
          "indexed": false,
          "name": "points",
          "type": "uint256"
        }
      ],
      "name": "RatingSubmited",
      "type": "event"
    },
    {
      "anonymous": false,
      "inputs": [
        {
          "indexed": false,
          "name": "hackathon_id",
          "type": "uint256"
        },
        {
          "indexed": false,
          "name": "participant_addr",
          "type": "address"
        },
        {
          "indexed": false,
          "name": "reward",
          "type": "uint256"
        }
      ],
      "name": "CashOut",
      "type": "event"
    },
    {
      "anonymous": false,
      "inputs": [
        {
          "indexed": false,
          "name": "hackathon_id",
          "type": "uint256"
        }
      ],
      "name": "HackathonReviewEnabled",
      "type": "event"
    },
    {
      "anonymous": false,
      "inputs": [
        {
          "indexed": false,
          "name": "hackathon_id",
          "type": "uint256"
        }
      ],
      "name": "HackathonFinished",
      "type": "event"
    },
    {
      "constant": false,
      "inputs": [
        {
          "name": "image_hash",
          "type": "string"
        },
        {
          "name": "_name",
          "type": "string"
        }
      ],
      "name": "createHackathon",
      "outputs": [],
      "payable": false,
      "stateMutability": "nonpayable",
      "type": "function"
    },
    {
      "constant": false,
      "inputs": [
        {
          "name": "hackathon_id",
          "type": "uint256"
        }
      ],
      "name": "join",
      "outputs": [],
      "payable": true,
      "stateMutability": "payable",
      "type": "function"
    },
    {
      "constant": false,
      "inputs": [
        {
          "name": "hackathon_id",
          "type": "uint256"
        }
      ],
      "name": "sponsor",
      "outputs": [],
      "payable": true,
      "stateMutability": "payable",
      "type": "function"
    },
    {
      "constant": false,
      "inputs": [
        {
          "name": "hackathon_id",
          "type": "uint256"
        },
        {
          "name": "participant_addr",
          "type": "address"
        },
        {
          "name": "points",
          "type": "uint256"
        }
      ],
      "name": "rate",
      "outputs": [],
      "payable": false,
      "stateMutability": "nonpayable",
      "type": "function"
    },
    {
      "constant": false,
      "inputs": [
        {
          "name": "hackathon_id",
          "type": "uint256"
        }
      ],
      "name": "cashOut",
      "outputs": [
        {
          "name": "",
          "type": "uint256"
        }
      ],
      "payable": false,
      "stateMutability": "nonpayable",
      "type": "function"
    },
    {
      "constant": false,
      "inputs": [
        {
          "name": "hackathon_id",
          "type": "uint256"
        }
      ],
      "name": "enableHackathonReview",
      "outputs": [],
      "payable": false,
      "stateMutability": "nonpayable",
      "type": "function"
    },
    {
      "constant": false,
      "inputs": [
        {
          "name": "hackathon_id",
          "type": "uint256"
        }
      ],
      "name": "finishHackathon",
      "outputs": [],
      "payable": false,
      "stateMutability": "nonpayable",
      "type": "function"
    },
    {
      "constant": false,
      "inputs": [
        {
          "name": "hackathon_id",
          "type": "uint256"
        }
      ],
      "name": "forceFinishHackathon",
      "outputs": [],
      "payable": false,
      "stateMutability": "nonpayable",
      "type": "function"
    },
    {
      "constant": false,
      "inputs": [
        {
          "name": "hackathon_id",
          "type": "uint256"
        }
      ],
      "name": "forceFinishHackathonFromReview",
      "outputs": [],
      "payable": false,
      "stateMutability": "nonpayable",
      "type": "function"
    }
  ],
  "bytecode": "0x6080604052678ac7230489e8000060065534801561001c57600080fd5b506124a68061002c6000396000f3fe608060405260043610610105576000357c010000000000000000000000000000000000000000000000000000000090048063a83b083c116100a7578063c31e63c211610076578063c31e63c214610685578063e06058c6146106c0578063f8c3a11814610762578063fced5b751461078d57610105565b8063a83b083c1461043a578063a95d683b1461049f578063b6cce5e2146104da578063c10771941461050857610105565b80635c7b79f5116100e35780635c7b79f5146101ae578063608e82b9146101fd5780637563ebfe1461028c57806397348b34146102db57610105565b8063049878f31461010a5780633ff243ac146101385780634a12640a14610173575b600080fd5b6101366004803603602081101561012057600080fd5b8101908080359060200190929190505050610800565b005b34801561014457600080fd5b506101716004803603602081101561015b57600080fd5b8101908080359060200190929190505050610bb4565b005b34801561017f57600080fd5b506101ac6004803603602081101561019657600080fd5b8101908080359060200190929190505050610d6b565b005b3480156101ba57600080fd5b506101e7600480360360208110156101d157600080fd5b8101908080359060200190929190505050610eb6565b6040518082815260200191505060405180910390f35b34801561020957600080fd5b506102766004803603606081101561022057600080fd5b8101908080359060200190929190803573ffffffffffffffffffffffffffffffffffffffff169060200190929190803573ffffffffffffffffffffffffffffffffffffffff16906020019092919050505061131c565b6040518082815260200191505060405180910390f35b34801561029857600080fd5b506102c5600480360360208110156102af57600080fd5b810190808035906020019092919050505061134e565b6040518082815260200191505060405180910390f35b3480156102e757600080fd5b50610438600480360360408110156102fe57600080fd5b810190808035906020019064010000000081111561031b57600080fd5b82018360208201111561032d57600080fd5b8035906020019184600183028401116401000000008311171561034f57600080fd5b91908080601f016020809104026020016040519081016040528093929190818152602001838380828437600081840152601f19601f820116905080830192505050505050509192919290803590602001906401000000008111156103b257600080fd5b8201836020820111156103c457600080fd5b803590602001918460018302840111640100000000831117156103e657600080fd5b91908080601f016020809104026020016040519081016040528093929190818152602001838380828437600081840152601f19601f820116905080830192505050505050509192919290505050611366565b005b34801561044657600080fd5b5061049d6004803603606081101561045d57600080fd5b8101908080359060200190929190803573ffffffffffffffffffffffffffffffffffffffff16906020019092919080359060200190929190505050611606565b005b3480156104ab57600080fd5b506104d8600480360360208110156104c257600080fd5b8101908080359060200190929190505050611c58565b005b610506600480360360208110156104f057600080fd5b8101908080359060200190929190505050611dbd565b005b34801561051457600080fd5b506105416004803603602081101561052b57600080fd5b8101908080359060200190929190505050611ef2565b604051808873ffffffffffffffffffffffffffffffffffffffff1673ffffffffffffffffffffffffffffffffffffffff16815260200187600281111561058357fe5b60ff1681526020018060200180602001868152602001858152602001848152602001838103835288818151815260200191508051906020019080838360005b838110156105dd5780820151818401526020810190506105c2565b50505050905090810190601f16801561060a5780820380516001836020036101000a031916815260200191505b50838103825287818151815260200191508051906020019080838360005b83811015610643578082015181840152602081019050610628565b50505050905090810190601f1680156106705780820380516001836020036101000a031916815260200191505b50995050505050505050505060405180910390f35b34801561069157600080fd5b506106be600480360360208110156106a857600080fd5b8101908080359060200190929190505050612091565b005b3480156106cc57600080fd5b50610719600480360360408110156106e357600080fd5b8101908080359060200190929190803573ffffffffffffffffffffffffffffffffffffffff16906020019092919050505061220e565b604051808373ffffffffffffffffffffffffffffffffffffffff1673ffffffffffffffffffffffffffffffffffffffff1681526020018281526020019250505060405180910390f35b34801561076e57600080fd5b5061077761225f565b6040518082815260200191505060405180910390f35b34801561079957600080fd5b506107e6600480360360408110156107b057600080fd5b8101908080359060200190929190803573ffffffffffffffffffffffffffffffffffffffff169060200190929190505050612265565b604051808215151515815260200191505060405180910390f35b60065434141515610879576040517f08c379a000000000000000000000000000000000000000000000000000000000815260040180806020018281038252601b8152602001807f416d6f756e74206e6f7420657175616c20746f2070617920666565000000000081525060200191505060405180910390fd5b80600073ffffffffffffffffffffffffffffffffffffffff166001600083815260200190815260200160002060003373ffffffffffffffffffffffffffffffffffffffff1673ffffffffffffffffffffffffffffffffffffffff16815260200190815260200160002060000160009054906101000a900473ffffffffffffffffffffffffffffffffffffffff1673ffffffffffffffffffffffffffffffffffffffff16141515610991576040517f08c379a00000000000000000000000000000000000000000000000000000000081526004018080602001828103825260168152602001807f5061727469636970616e7420686173206a6f696e65640000000000000000000081525060200191505060405180910390fd5b816000600281111561099f57fe5b60008083815260200190815260200160002060000160149054906101000a900460ff1660028111156109cd57fe5b141515610a25576040517f08c379a00000000000000000000000000000000000000000000000000000000081526004018080602001828103825260228152602001806124156022913960400191505060405180910390fd5b610a2d61233f565b60408051908101604052803373ffffffffffffffffffffffffffffffffffffffff16815260200160008152509050806001600086815260200190815260200160002060003373ffffffffffffffffffffffffffffffffffffffff1673ffffffffffffffffffffffffffffffffffffffff16815260200190815260200160002060008201518160000160006101000a81548173ffffffffffffffffffffffffffffffffffffffff021916908373ffffffffffffffffffffffffffffffffffffffff16021790555060208201518160010155905050610b2a6006546000808781526020019081526020016000206003015461229490919063ffffffff16565b600080868152602001908152602001600020600301819055507f4acb3b89fd1a549ca229841770163be3f6caef6a85604f11ee97504944cd0e098433604051808381526020018273ffffffffffffffffffffffffffffffffffffffff1673ffffffffffffffffffffffffffffffffffffffff1681526020019250505060405180910390a150505050565b8060016002811115610bc257fe5b60008083815260200190815260200160002060000160149054906101000a900460ff166002811115610bf057fe5b141515610c65576040517f08c379a000000000000000000000000000000000000000000000000000000000815260040180806020018281038252601f8152602001807f4861636b6174686f6e20726576696577206973206e6f7420656e61626c65640081525060200191505060405180910390fd5b8162093a8060008083815260200190815260200160002060050154014210151515610cf8576040517f08c379a00000000000000000000000000000000000000000000000000000000081526004018080602001828103825260208152602001807f74696d65206d7573742062652067726561746572207468616e2031207765656b81525060200191505060405180910390fd5b600260008085815260200190815260200160002060000160146101000a81548160ff02191690836002811115610d2a57fe5b02179055507f3637618eba2640b4159af7beb7028e85a825037a8ac8e998027a8eedabfd6386836040518082815260200191505060405180910390a1505050565b803373ffffffffffffffffffffffffffffffffffffffff1660008083815260200190815260200160002060000160009054906101000a900473ffffffffffffffffffffffffffffffffffffffff1673ffffffffffffffffffffffffffffffffffffffff16141515610e44576040517f08c379a000000000000000000000000000000000000000000000000000000000815260040180806020018281038252601e8152602001807f596f7520617265206e6f7420746865206861636b6174686f6e20686f7374000081525060200191505060405180910390fd5b600260008084815260200190815260200160002060000160146101000a81548160ff02191690836002811115610e7657fe5b02179055507f3637618eba2640b4159af7beb7028e85a825037a8ac8e998027a8eedabfd6386826040518082815260200191505060405180910390a15050565b600081600073ffffffffffffffffffffffffffffffffffffffff166001600083815260200190815260200160002060003373ffffffffffffffffffffffffffffffffffffffff1673ffffffffffffffffffffffffffffffffffffffff16815260200190815260200160002060000160009054906101000a900473ffffffffffffffffffffffffffffffffffffffff1673ffffffffffffffffffffffffffffffffffffffff1614151515610fd1576040517f08c379a000000000000000000000000000000000000000000000000000000000815260040180806020018281038252601a8152602001807f5061727469636970616e7420686173206e6f74206a6f696e656400000000000081525060200191505060405180910390fd5b82336004600083815260200190815260200160002060008273ffffffffffffffffffffffffffffffffffffffff1673ffffffffffffffffffffffffffffffffffffffff16815260200190815260200160002060009054906101000a900460ff16151515611089576040517f08c379a00000000000000000000000000000000000000000000000000000000081526004018080602001828103825260228152602001806124376022913960400191505060405180910390fd5b8460028081111561109657fe5b60008083815260200190815260200160002060000160149054906101000a900460ff1660028111156110c457fe5b141515611139576040517f08c379a00000000000000000000000000000000000000000000000000000000081526004018080602001828103825260198152602001807f4861636b6174686f6e206973206e6f742066696e69736865640000000000000081525060200191505060405180910390fd5b60006005600088815260200190815260200160002054905060006001600089815260200190815260200160002060003373ffffffffffffffffffffffffffffffffffffffff1673ffffffffffffffffffffffffffffffffffffffff16815260200190815260200160002060010154905060008060008a815260200190815260200160002060030154905060006111ea846111dc85856122b590919063ffffffff16565b6122f390919063ffffffff16565b90503373ffffffffffffffffffffffffffffffffffffffff166108fc829081150290604051600060405180830381858888f19350505050158015611232573d6000803e3d6000fd5b506001600460008c815260200190815260200160002060003373ffffffffffffffffffffffffffffffffffffffff1673ffffffffffffffffffffffffffffffffffffffff16815260200190815260200160002060006101000a81548160ff0219169083151502179055507f626be2766431e850fa0daafea58846cc985cbde6efd3887eea47fdc618d3800c8a3383604051808481526020018373ffffffffffffffffffffffffffffffffffffffff1673ffffffffffffffffffffffffffffffffffffffff168152602001828152602001935050505060405180910390a15050505050505050919050565b600260205282600052604060002060205281600052604060002060205280600052604060002060009250925050505481565b60056020528060005260406000206000915090505481565b6001600360008282540192505081905550600042905060e0604051908101604052803373ffffffffffffffffffffffffffffffffffffffff168152602001600060028111156113b157fe5b81526020018481526020018381526020016000815260200182815260200182815250600080600354815260200190815260200160002060008201518160000160006101000a81548173ffffffffffffffffffffffffffffffffffffffff021916908373ffffffffffffffffffffffffffffffffffffffff16021790555060208201518160000160146101000a81548160ff0219169083600281111561145257fe5b0217905550604082015181600101908051906020019061147392919061236f565b50606082015181600201908051906020019061149092919061236f565b506080820151816003015560a0820151816004015560c082015181600501559050507ff80b5405fbb89872dd880a7144ce30278e2e0c5d41839a7dece979a8c804f3ab33600354858585604051808673ffffffffffffffffffffffffffffffffffffffff1673ffffffffffffffffffffffffffffffffffffffff1681526020018581526020018060200180602001848152602001838103835286818151815260200191508051906020019080838360005b8381101561155c578082015181840152602081019050611541565b50505050905090810190601f1680156115895780820380516001836020036101000a031916815260200191505b50838103825285818151815260200191508051906020019080838360005b838110156115c25780820151818401526020810190506115a7565b50505050905090810190601f1680156115ef5780820380516001836020036101000a031916815260200191505b5097505050505050505060405180910390a1505050565b82600073ffffffffffffffffffffffffffffffffffffffff166001600083815260200190815260200160002060003373ffffffffffffffffffffffffffffffffffffffff1673ffffffffffffffffffffffffffffffffffffffff16815260200190815260200160002060000160009054906101000a900473ffffffffffffffffffffffffffffffffffffffff1673ffffffffffffffffffffffffffffffffffffffff161415151561171f576040517f08c379a000000000000000000000000000000000000000000000000000000000815260040180806020018281038252601a8152602001807f5061727469636970616e7420686173206e6f74206a6f696e656400000000000081525060200191505060405180910390fd5b8383600073ffffffffffffffffffffffffffffffffffffffff166001600084815260200190815260200160002060008373ffffffffffffffffffffffffffffffffffffffff1673ffffffffffffffffffffffffffffffffffffffff16815260200190815260200160002060000160009054906101000a900473ffffffffffffffffffffffffffffffffffffffff1673ffffffffffffffffffffffffffffffffffffffff1614151515611839576040517f08c379a000000000000000000000000000000000000000000000000000000000815260040180806020018281038252601b8152602001807f5061727469636970616e7420646f6573206e6f7420657869737473000000000081525060200191505060405180910390fd5b83600581111515156118b3576040517f08c379a00000000000000000000000000000000000000000000000000000000081526004018080602001828103825260198152602001807f506f696e7473206172652067726561746572207468616e20350000000000000081525060200191505060405180910390fd5b86600160028111156118c157fe5b60008083815260200190815260200160002060000160149054906101000a900460ff1660028111156118ef57fe5b141515611964576040517f08c379a000000000000000000000000000000000000000000000000000000000815260040180806020018281038252601f8152602001807f4861636b6174686f6e20726576696577206973206e6f7420656e61626c65640081525060200191505060405180910390fd5b6000600260008a815260200190815260200160002060003373ffffffffffffffffffffffffffffffffffffffff1673ffffffffffffffffffffffffffffffffffffffff16815260200190815260200160002060008973ffffffffffffffffffffffffffffffffffffffff1673ffffffffffffffffffffffffffffffffffffffff168152602001908152602001600020549050611a6e81611a6089600160008e815260200190815260200160002060008d73ffffffffffffffffffffffffffffffffffffffff1673ffffffffffffffffffffffffffffffffffffffff1681526020019081526020016000206001015461229490919063ffffffff16565b61231d90919063ffffffff16565b600160008b815260200190815260200160002060008a73ffffffffffffffffffffffffffffffffffffffff1673ffffffffffffffffffffffffffffffffffffffff16815260200190815260200160002060010181905550611afd81611aef89600560008e81526020019081526020016000205461229490919063ffffffff16565b61231d90919063ffffffff16565b600560008b81526020019081526020016000208190555086600260008b815260200190815260200160002060003373ffffffffffffffffffffffffffffffffffffffff1673ffffffffffffffffffffffffffffffffffffffff16815260200190815260200160002060008a73ffffffffffffffffffffffffffffffffffffffff1673ffffffffffffffffffffffffffffffffffffffff168152602001908152602001600020819055507f49214ca2a47b92c56b4008e8f27ea8b5d278b24c5fba25e3877c56bcbb1680f989338a8a604051808581526020018473ffffffffffffffffffffffffffffffffffffffff1673ffffffffffffffffffffffffffffffffffffffff1681526020018373ffffffffffffffffffffffffffffffffffffffff1673ffffffffffffffffffffffffffffffffffffffff16815260200182815260200194505050505060405180910390a1505050505050505050565b803373ffffffffffffffffffffffffffffffffffffffff1660008083815260200190815260200160002060000160009054906101000a900473ffffffffffffffffffffffffffffffffffffffff1673ffffffffffffffffffffffffffffffffffffffff16141515611d31576040517f08c379a000000000000000000000000000000000000000000000000000000000815260040180806020018281038252601e8152602001807f596f7520617265206e6f7420746865206861636b6174686f6e20686f7374000081525060200191505060405180910390fd5b600160008084815260200190815260200160002060000160146101000a81548160ff02191690836002811115611d6357fe5b021790555042600080848152602001908152602001600020600501819055507f230c47d8b77ee7f5eccdb032e78d0409da83e45bbd6ae4492245774f574484b1826040518082815260200191505060405180910390a15050565b80600280811115611dca57fe5b60008083815260200190815260200160002060000160149054906101000a900460ff166002811115611df857fe5b14151515611e6e576040517f08c379a00000000000000000000000000000000000000000000000000000000081526004018080602001828103825260158152602001807f4861636b6174686f6e2069732066696e6973686564000000000000000000000081525060200191505060405180910390fd5b611e96346000808581526020019081526020016000206003015461229490919063ffffffff16565b600080848152602001908152602001600020600301819055507fd7bd62bddd880fdba9c120b8ac24bc6aceeddd8bbb7ef4cfef7bcfae0d9d07cc8234604051808381526020018281526020019250505060405180910390a15050565b60006020528060005260406000206000915090508060000160009054906101000a900473ffffffffffffffffffffffffffffffffffffffff16908060000160149054906101000a900460ff1690806001018054600181600116156101000203166002900480601f016020809104026020016040519081016040528092919081815260200182805460018160011615610100020316600290048015611fd75780601f10611fac57610100808354040283529160200191611fd7565b820191906000526020600020905b815481529060010190602001808311611fba57829003601f168201915b505050505090806002018054600181600116156101000203166002900480601f0160208091040260200160405190810160405280929190818152602001828054600181600116156101000203166002900480156120755780601f1061204a57610100808354040283529160200191612075565b820191906000526020600020905b81548152906001019060200180831161205857829003601f168201915b5050505050908060030154908060040154908060050154905087565b806000600281111561209f57fe5b60008083815260200190815260200160002060000160149054906101000a900460ff1660028111156120cd57fe5b141515612125576040517f08c379a00000000000000000000000000000000000000000000000000000000081526004018080602001828103825260228152602001806124156022913960400191505060405180910390fd5b81624f1a006000808381526020019081526020016000206004015401421015151561219b576040517f08c379a00000000000000000000000000000000000000000000000000000000081526004018080602001828103825260228152602001806124596022913960400191505060405180910390fd5b600260008085815260200190815260200160002060000160146101000a81548160ff021916908360028111156121cd57fe5b02179055507f3637618eba2640b4159af7beb7028e85a825037a8ac8e998027a8eedabfd6386836040518082815260200191505060405180910390a1505050565b6001602052816000526040600020602052806000526040600020600091509150508060000160009054906101000a900473ffffffffffffffffffffffffffffffffffffffff16908060010154905082565b60035481565b60046020528160005260406000206020528060005260406000206000915091509054906101000a900460ff1681565b60008082840190508381101515156122ab57600080fd5b8091505092915050565b6000808314156122c857600090506122ed565b600082840290508284828115156122db57fe5b041415156122e857600080fd5b809150505b92915050565b6000808211151561230357600080fd5b6000828481151561231057fe5b0490508091505092915050565b600082821115151561232e57600080fd5b600082840390508091505092915050565b6040805190810160405280600073ffffffffffffffffffffffffffffffffffffffff168152602001600081525090565b828054600181600116156101000203166002900490600052602060002090601f016020900481019282601f106123b057805160ff19168380011785556123de565b828001600101855582156123de579182015b828111156123dd5782518255916020019190600101906123c2565b5b5090506123eb91906123ef565b5090565b61241191905b8082111561240d5760008160009055506001016123f5565b5090565b9056fe4861636b6174686f6e20726567697374726174696f6e206973206e6f74206f70656e5061727469636970616e742068617320616c726561647920636173686564206f757474696d65206d7573742062652067726561746572207468616e2032206d6f6e746873a165627a7a72305820eeb1de163a4888f32d54458b991ac1e92ee11e7210751259f187e273f6a1e31d0029",
  "source": "pragma solidity ^0.5.0;\n\nimport \"node_modules/openzeppelin-solidity/contracts/math/SafeMath.sol\";\n\ncontract HackathonMunon\n{\n  // Events\n  event HackathonCreation\n  (\n    address hackaton_host,\n    uint256 hackathon_id,\n    string image_hash,\n    string name,\n    uint256 creation_time\n  );\n\n  event Registration\n  (\n    uint256 hackathon_id,\n    address participant_addr\n  );\n\n  event SponsorshipSubmited\n  (\n    uint256 hackathon_id,\n    uint256 value\n  );\n\n  event RatingSubmited\n  (\n    uint256 hackathon_id,\n    address reviewer_addr,\n    address reviewed_addr,\n    uint256 points\n  );\n\n  event CashOut\n  (\n    uint256 hackathon_id,\n    address participant_addr,\n    uint256 reward\n  );\n\n  event HackathonReviewEnabled\n  (\n    uint256 hackathon_id\n  );\n\n  event HackathonFinished\n  (\n    uint256 hackathon_id\n  );\n\n  using SafeMath for uint256;\n  // Structs\n  struct Hackathon\n  {\n    address host_addr;\n    HackathonState state;\n    string image_hash;\n    string name;\n    uint256 pot;\n    uint256 creation_time;\n    uint256 enable_review_time;\n  }\n\n  struct Participant\n  {\n    address addr;\n    uint256 points;\n  }\n\n  // Enums\n  enum HackathonState { RegistrationOpen, ReviewEnabled, Finished }\n\n  // Public variables\n  mapping(uint256 => Hackathon) public hackathons; // Stores hackathons data\n  mapping(uint256 => mapping(address => Participant)) public hackathon_participants; // Stores participant data\n  // Rating history, enables correcting ratings and prevents rating\n  mapping(uint256 => mapping(address => mapping(address => uint256))) public participant_ratings;\n  uint256 public hackathon_count; // Helps generating a new hackathon id\n  mapping(uint256 => mapping(address => bool)) public participant_has_cashed_out; // Helps preventing double cash out\n  mapping(uint256 => uint256) public total_hackathon_points; // Helps calculating pot splits\n  uint256 entry_fee = 10 ether; // Hackathon entry fee\n\n  // Modifiers\n  modifier paysEntryFee()\n  {\n    require(msg.value == entry_fee, \"Amount not equal to pay fee\");\n    _;\n  }\n\n  modifier hasNotJoined(uint256 hackathon_id)\n  {\n    require(hackathon_participants[hackathon_id][msg.sender].addr == address(0), \"Participant has joined\");\n    _;\n  }\n\n  modifier hasJoined(uint256 hackathon_id)\n  {\n    require(hackathon_participants[hackathon_id][msg.sender].addr != address(0), \"Participant has not joined\");\n    _;\n  }\n\n  modifier participantExists(uint256 hackathon_id, address participant_addr)\n  {\n    require(hackathon_participants[hackathon_id][participant_addr].addr != address(0), \"Participant does not exists\");\n    _;\n  }\n\n  modifier pointsAreValid(uint256 points)\n  {\n    require(points <= 5, \"Points are greater than 5\");\n    _;\n  }\n\n  modifier hasNotCashedOut(uint256 hackathon_id, address participant_addr)\n  {\n    require(!participant_has_cashed_out[hackathon_id][participant_addr], \"Participant has already cashed out\");\n    _;\n  }\n\n  modifier isRegistrationOpen(uint256 hackathon_id)\n  {\n    require(hackathons[hackathon_id].state == HackathonState.RegistrationOpen, \"Hackathon registration is not open\");\n    _;\n  }\n\n  modifier isReviewEnabled(uint256 hackathon_id)\n  {\n    require(hackathons[hackathon_id].state == HackathonState.ReviewEnabled, \"Hackathon review is not enabled\");\n    _;\n  }\n\n  modifier isFinished(uint256 hackathon_id)\n  {\n    require(hackathons[hackathon_id].state == HackathonState.Finished, \"Hackathon is not finished\");\n    _;\n  }\n\n  modifier isNotFinished(uint256 hackathon_id)\n  {\n    require(hackathons[hackathon_id].state != HackathonState.Finished, \"Hackathon is finished\");\n    _;\n  }\n\n  modifier twoMonthFromCreation(uint256 hackathon_id)\n  {\n    require(now >= hackathons[hackathon_id].creation_time + 60 days, \"time must be greater than 2 months\");\n    _;\n  }\n\n  modifier oneWeekFromReview(uint256 hackathon_id)\n  {\n    require(now >= hackathons[hackathon_id].enable_review_time + 7 days, \"time must be greater than 1 week\");\n    _;\n  }\n\n  modifier isHackathonHost(uint256 hackathon_id)\n  {\n    require(hackathons[hackathon_id].host_addr == msg.sender, \"You are not the hackathon host\");\n    _;\n  }\n\n  // Public methods\n  function createHackathon(string memory image_hash, string memory _name) public\n  {\n    hackathon_count += 1;\n    uint256 date_now = now;\n    hackathons[hackathon_count] = Hackathon(msg.sender, HackathonState.RegistrationOpen, image_hash, _name, 0, date_now, date_now);\n    emit HackathonCreation(msg.sender, hackathon_count, image_hash,_name, date_now);\n  }\n\n  function join(\n    uint256 hackathon_id\n  ) public payable paysEntryFee hasNotJoined(hackathon_id) isRegistrationOpen(hackathon_id)\n  {\n    Participant memory participant = Participant(msg.sender, 0);\n    hackathon_participants[hackathon_id][msg.sender] = participant;\n    hackathons[hackathon_id].pot = hackathons[hackathon_id].pot.add(entry_fee);\n    emit Registration(hackathon_id, msg.sender);\n  }\n\n  function sponsor(\n    uint256 hackathon_id\n  ) public payable isNotFinished(hackathon_id)\n  {\n    hackathons[hackathon_id].pot = hackathons[hackathon_id].pot.add(msg.value);\n    emit SponsorshipSubmited(hackathon_id, msg.value);\n  }\n\n  function rate(\n    uint256 hackathon_id,\n    address participant_addr,\n    uint256 points\n  ) public hasJoined(hackathon_id) participantExists(hackathon_id, participant_addr) pointsAreValid(points) isReviewEnabled(hackathon_id)\n  {\n    uint256 rating_stored = participant_ratings[hackathon_id][msg.sender][participant_addr];\n    hackathon_participants[hackathon_id][participant_addr].points = hackathon_participants[hackathon_id][participant_addr].points.add(\n      points).sub(rating_stored);\n    total_hackathon_points[hackathon_id] = total_hackathon_points[hackathon_id].add(points).sub(rating_stored);\n    participant_ratings[hackathon_id][msg.sender][participant_addr] = points;\n    emit RatingSubmited(hackathon_id, msg.sender, participant_addr, points);\n  }\n\n  function cashOut(uint256 hackathon_id)\n    public hasJoined(hackathon_id) hasNotCashedOut(hackathon_id, msg.sender) isFinished(hackathon_id) returns(uint256)\n  {\n    uint256 total_points = total_hackathon_points[hackathon_id];\n    uint256 my_points = hackathon_participants[hackathon_id][msg.sender].points;\n\n    // Calculate reward\n    uint256 pot = hackathons[hackathon_id].pot;\n    uint256 my_reward = pot.mul(my_points).div(total_points);\n\n    msg.sender.transfer(my_reward);\n    participant_has_cashed_out[hackathon_id][msg.sender] = true;\n    emit CashOut(hackathon_id, msg.sender, my_reward);\n  }\n\n  function enableHackathonReview(uint256 hackathon_id) public isHackathonHost(hackathon_id)\n  {\n    hackathons[hackathon_id].state = HackathonState.ReviewEnabled;\n    hackathons[hackathon_id].enable_review_time = now;\n    emit HackathonReviewEnabled(hackathon_id);\n  }\n\n  function finishHackathon(uint256 hackathon_id) public isHackathonHost(hackathon_id)\n  {\n    hackathons[hackathon_id].state = HackathonState.Finished;\n    emit HackathonFinished(hackathon_id);\n  }\n\n  function forceFinishHackathon(uint256 hackathon_id) public isRegistrationOpen(hackathon_id) twoMonthFromCreation(hackathon_id)\n  {\n    hackathons[hackathon_id].state = HackathonState.Finished;\n    emit HackathonFinished(hackathon_id);\n  }\n\n  function forceFinishHackathonFromReview(uint256 hackathon_id) public isReviewEnabled(hackathon_id) oneWeekFromReview(hackathon_id)\n  {\n    hackathons[hackathon_id].state = HackathonState.Finished;\n    emit HackathonFinished(hackathon_id);\n  }\n\n  function () external payable {\n    revert();\n  }\n}\n",
  "sourcePath": "/home/crisgarner/projects/community/HackathonMunon/contracts/HackathonMunon.sol",
  "compiler": {
    "name": "solc",
    "version": "0.5.2+commit.1df8f40c.Emscripten.clang"
  },
  "schemaVersion": "3.0.9",
  "updatedAt": "2019-06-01T23:47:04.115Z",
  "devdoc": {
    "methods": {}
  },
  "userdoc": {
    "methods": {}
  }
}