{
  "contractName": "Sponsorship",
  "abi": [
    {
      "constant": true,
      "inputs": [],
      "name": "hackathonAddress",
      "outputs": [
        {
          "name": "",
          "type": "address"
        }
      ],
      "payable": false,
      "stateMutability": "view",
      "type": "function"
    },
    {
      "inputs": [
        {
          "name": "_hackathonAddress",
          "type": "address"
        }
      ],
      "payable": false,
      "stateMutability": "nonpayable",
      "type": "constructor"
    },
    {
      "constant": false,
      "inputs": [],
      "name": "splitSponsorship",
      "outputs": [],
      "payable": true,
      "stateMutability": "payable",
      "type": "fallback"
    },
    {
      "constant": false,
      "inputs": [
        {
          "indexed": false,
          "name": "_from",
          "type": "address"
        },
        {
          "indexed": false,
          "name": "_value",
          "type": "uint256"
        }
      ],
      "name": "LogSponsorship",
      "outputs": [],
      "payable": false,
      "stateMutability": "nonpayable",
      "type": "event",
      "anonymous": false
    },
    {
      "constant": false,
      "inputs": [],
      "name": "addSponsorship",
      "outputs": [],
      "payable": true,
      "stateMutability": "payable",
      "type": "function"
    },
    {
      "constant": false,
      "inputs": [],
      "name": "splitSponsorship",
      "outputs": [],
      "payable": false,
      "stateMutability": "nonpayable",
      "type": "function"
    }
  ],
  "bytecode": "0x608060405234801561001057600080fd5b506040516020806104898339810180604052602081101561003057600080fd5b8101908080519060200190929190505050806000806101000a81548173ffffffffffffffffffffffffffffffffffffffff021916908373ffffffffffffffffffffffffffffffffffffffff160217905550506103f8806100916000396000f3fe608060405260043610610057576000357c0100000000000000000000000000000000000000000000000000000000900463ffffffff168063121c14aa146100c45780634271e1701461011b5780636e28e29c14610132575b7f88ffca9792701ff84b10d82236e92b0f09f6ee43a312039be6693cd17964a76e3334604051808373ffffffffffffffffffffffffffffffffffffffff1673ffffffffffffffffffffffffffffffffffffffff1681526020018281526020019250505060405180910390a1005b3480156100d057600080fd5b506100d961013c565b604051808273ffffffffffffffffffffffffffffffffffffffff1673ffffffffffffffffffffffffffffffffffffffff16815260200191505060405180910390f35b34801561012757600080fd5b50610130610161565b005b61013a6102cc565b005b6000809054906101000a900473ffffffffffffffffffffffffffffffffffffffff1681565b60008060009054906101000a900473ffffffffffffffffffffffffffffffffffffffff16905060006101b460023073ffffffffffffffffffffffffffffffffffffffff163161033990919063ffffffff16565b90508173ffffffffffffffffffffffffffffffffffffffff1663b6cce5e28260016040518363ffffffff167c0100000000000000000000000000000000000000000000000000000000028152600401808281526020019150506000604051808303818588803b15801561022657600080fd5b505af115801561023a573d6000803e3d6000fd5b50505050508173ffffffffffffffffffffffffffffffffffffffff1663b6cce5e28260026040518363ffffffff167c0100000000000000000000000000000000000000000000000000000000028152600401808281526020019150506000604051808303818588803b1580156102af57600080fd5b505af11580156102c3573d6000803e3d6000fd5b50505050505050565b7f88ffca9792701ff84b10d82236e92b0f09f6ee43a312039be6693cd17964a76e3334604051808373ffffffffffffffffffffffffffffffffffffffff1673ffffffffffffffffffffffffffffffffffffffff1681526020018281526020019250505060405180910390a1565b600080821115156103b2576040517f08c379a000000000000000000000000000000000000000000000000000000000815260040180806020018281038252601a8152602001807f536166654d6174683a206469766973696f6e206279207a65726f00000000000081525060200191505060405180910390fd5b600082848115156103bf57fe5b049050809150509291505056fea165627a7a72305820968fe404823f471e369e3bb4362f6f66dadfe3224d68d77f2878870082efaf110029",
  "source": "pragma solidity ^0.5.0;\nimport \"./HackathonMunon.sol\";\nimport \"node_modules/openzeppelin-solidity/contracts/math/SafeMath.sol\";\n\ncontract Sponsorship {\n  event LogSponsorship(address _from, uint _value);\n  using SafeMath for uint256;\n  address payable public hackathonAddress;\n\n  constructor(address payable _hackathonAddress) public{\n    hackathonAddress = _hackathonAddress;\n  }\n\n  function addSponsorship() public payable {\n    emit LogSponsorship(msg.sender, msg.value);\n  }\n\n  function splitSponsorship() public {\n   HackathonMunon hack = HackathonMunon(hackathonAddress);\n   uint splitBalance = address(this).balance.div(2);\n   hack.sponsor.value(splitBalance)(1);\n   hack.sponsor.value(splitBalance)(2);\n  }\n\n  function() external payable{\n   emit LogSponsorship(msg.sender, msg.value);\n  }\n}\n",
  "sourcePath": "/home/crisgarner/projects/community/sponsorships/contracts/Sponsorship.sol",
  "compiler": {
    "name": "solc",
    "version": "0.5.0+commit.1d4f565a.Emscripten.clang"
  },
  "schemaVersion": "3.0.9",
  "updatedAt": "2019-06-09T17:11:06.230Z",
  "devdoc": {
    "methods": {}
  },
  "userdoc": {
    "methods": {}
  }
}